{
  "_format": "hh-sol-artifact-1",
  "contractName": "DeCentDate",
  "sourceName": "contracts/DeCentDate.sol",
  "abi": [
    {
      "anonymous": false,
      "inputs": [
        {
          "indexed": true,
          "internalType": "uint256",
          "name": "profId",
          "type": "uint256"
        },
        {
          "indexed": false,
          "internalType": "string",
          "name": "areacode",
          "type": "string"
        },
        {
          "indexed": false,
          "internalType": "string",
          "name": "phonenumber",
          "type": "string"
        },
        {
          "indexed": false,
          "internalType": "uint256",
          "name": "relId",
          "type": "uint256"
        }
      ],
      "name": "NumberListCreated",
      "type": "event"
    },
    {
      "anonymous": false,
      "inputs": [
        {
          "indexed": true,
          "internalType": "uint256",
          "name": "profId",
          "type": "uint256"
        },
        {
          "indexed": false,
          "internalType": "address",
          "name": "creator",
          "type": "address"
        },
        {
          "indexed": false,
          "internalType": "string",
          "name": "firstname",
          "type": "string"
        },
        {
          "indexed": false,
          "internalType": "string",
          "name": "lastname",
          "type": "string"
        },
        {
          "indexed": false,
          "internalType": "string",
          "name": "areacode",
          "type": "string"
        },
        {
          "indexed": false,
          "internalType": "string",
          "name": "phonenumber",
          "type": "string"
        },
        {
          "indexed": false,
          "internalType": "enum DeCentDate.relationship_stage",
          "name": "relateStage",
          "type": "uint8"
        },
        {
          "indexed": false,
          "internalType": "uint256",
          "name": "relId",
          "type": "uint256"
        }
      ],
      "name": "ProfileItemCreated",
      "type": "event"
    },
    {
      "anonymous": false,
      "inputs": [
        {
          "indexed": true,
          "internalType": "uint256",
          "name": "relId",
          "type": "uint256"
        },
        {
          "indexed": false,
          "internalType": "uint256",
          "name": "creatorProfId",
          "type": "uint256"
        },
        {
          "indexed": false,
          "internalType": "uint256",
          "name": "partnerProfId",
          "type": "uint256"
        },
        {
          "indexed": false,
          "internalType": "uint256",
          "name": "secondpartnerId",
          "type": "uint256"
        },
        {
          "indexed": false,
          "internalType": "uint256",
          "name": "thirdpartnerId",
          "type": "uint256"
        },
        {
          "indexed": false,
          "internalType": "enum DeCentDate.relationship_stage",
          "name": "stage",
          "type": "uint8"
        },
        {
          "indexed": false,
          "internalType": "bool",
          "name": "contacted",
          "type": "bool"
        }
      ],
      "name": "relationshipItemCreated",
      "type": "event"
    },
    {
      "inputs": [],
      "name": "CaitlinResponds",
      "outputs": [],
      "stateMutability": "nonpayable",
      "type": "function"
    },
    {
      "inputs": [],
      "name": "contactCaitlin",
      "outputs": [],
      "stateMutability": "nonpayable",
      "type": "function"
    },
    {
      "inputs": [
        {
          "internalType": "string",
          "name": "_firstname",
          "type": "string"
        },
        {
          "internalType": "string",
          "name": "_lastname",
          "type": "string"
        },
        {
          "internalType": "string",
          "name": "_areacode",
          "type": "string"
        },
        {
          "internalType": "string",
          "name": "_phonenumber",
          "type": "string"
        }
      ],
      "name": "createProfile",
      "outputs": [],
      "stateMutability": "nonpayable",
      "type": "function"
    },
    {
      "inputs": [
        {
          "internalType": "uint256",
          "name": "_creatorprofid",
          "type": "uint256"
        },
        {
          "internalType": "uint256",
          "name": "_partnerprofid",
          "type": "uint256"
        },
        {
          "internalType": "uint256",
          "name": "_secondpartnerId",
          "type": "uint256"
        },
        {
          "internalType": "uint256",
          "name": "_thirdpartnerId",
          "type": "uint256"
        },
        {
          "internalType": "enum DeCentDate.relationship_stage",
          "name": "_stage",
          "type": "uint8"
        },
        {
          "internalType": "bool",
          "name": "_contacted",
          "type": "bool"
        }
      ],
      "name": "createRelationship",
      "outputs": [],
      "stateMutability": "nonpayable",
      "type": "function"
    },
    {
      "inputs": [
        {
          "internalType": "uint256",
          "name": "_id",
          "type": "uint256"
        }
      ],
      "name": "fetchIndivProfile",
      "outputs": [
        {
          "components": [
            {
              "internalType": "uint256",
              "name": "profId",
              "type": "uint256"
            },
            {
              "internalType": "address",
              "name": "creator",
              "type": "address"
            },
            {
              "internalType": "string",
              "name": "firstname",
              "type": "string"
            },
            {
              "internalType": "string",
              "name": "lastname",
              "type": "string"
            },
            {
              "internalType": "string",
              "name": "areacode",
              "type": "string"
            },
            {
              "internalType": "string",
              "name": "phonenumber",
              "type": "string"
            },
            {
              "internalType": "enum DeCentDate.relationship_stage",
              "name": "relateStage",
              "type": "uint8"
            },
            {
              "internalType": "uint256",
              "name": "relId",
              "type": "uint256"
            }
          ],
          "internalType": "struct DeCentDate.ProfileItem[]",
          "name": "",
          "type": "tuple[]"
        }
      ],
      "stateMutability": "view",
      "type": "function"
    },
    {
      "inputs": [
        {
          "internalType": "uint256",
          "name": "_id",
          "type": "uint256"
        }
      ],
      "name": "fetchIndivRelation",
      "outputs": [
        {
          "components": [
            {
              "internalType": "uint256",
              "name": "relId",
              "type": "uint256"
            },
            {
              "internalType": "uint256",
              "name": "creatorProfId",
              "type": "uint256"
            },
            {
              "internalType": "uint256",
              "name": "partnerProfId",
              "type": "uint256"
            },
            {
              "internalType": "uint256",
              "name": "secondpartnerId",
              "type": "uint256"
            },
            {
              "internalType": "uint256",
              "name": "thirdpartnerId",
              "type": "uint256"
            },
            {
              "internalType": "enum DeCentDate.relationship_stage",
              "name": "stage",
              "type": "uint8"
            },
            {
              "internalType": "bool",
              "name": "contacted",
              "type": "bool"
            }
          ],
          "internalType": "struct DeCentDate.relationshipItem[]",
          "name": "",
          "type": "tuple[]"
        }
      ],
      "stateMutability": "view",
      "type": "function"
    },
    {
      "inputs": [],
      "name": "fetchallRelations",
      "outputs": [
        {
          "components": [
            {
              "internalType": "uint256",
              "name": "relId",
              "type": "uint256"
            },
            {
              "internalType": "uint256",
              "name": "creatorProfId",
              "type": "uint256"
            },
            {
              "internalType": "uint256",
              "name": "partnerProfId",
              "type": "uint256"
            },
            {
              "internalType": "uint256",
              "name": "secondpartnerId",
              "type": "uint256"
            },
            {
              "internalType": "uint256",
              "name": "thirdpartnerId",
              "type": "uint256"
            },
            {
              "internalType": "enum DeCentDate.relationship_stage",
              "name": "stage",
              "type": "uint8"
            },
            {
              "internalType": "bool",
              "name": "contacted",
              "type": "bool"
            }
          ],
          "internalType": "struct DeCentDate.relationshipItem[]",
          "name": "",
          "type": "tuple[]"
        }
      ],
      "stateMutability": "view",
      "type": "function"
    },
    {
      "inputs": [
        {
          "internalType": "string",
          "name": "area",
          "type": "string"
        }
      ],
      "name": "fetchallnumbers",
      "outputs": [
        {
          "components": [
            {
              "internalType": "uint256",
              "name": "profId",
              "type": "uint256"
            },
            {
              "internalType": "string",
              "name": "areacode",
              "type": "string"
            },
            {
              "internalType": "string",
              "name": "phonenumber",
              "type": "string"
            },
            {
              "internalType": "uint256",
              "name": "relId",
              "type": "uint256"
            }
          ],
          "internalType": "struct DeCentDate.NumberList[]",
          "name": "",
          "type": "tuple[]"
        }
      ],
      "stateMutability": "view",
      "type": "function"
    },
    {
      "inputs": [],
      "name": "fetchallprofiles",
      "outputs": [
        {
          "components": [
            {
              "internalType": "uint256",
              "name": "profId",
              "type": "uint256"
            },
            {
              "internalType": "address",
              "name": "creator",
              "type": "address"
            },
            {
              "internalType": "string",
              "name": "firstname",
              "type": "string"
            },
            {
              "internalType": "string",
              "name": "lastname",
              "type": "string"
            },
            {
              "internalType": "string",
              "name": "areacode",
              "type": "string"
            },
            {
              "internalType": "string",
              "name": "phonenumber",
              "type": "string"
            },
            {
              "internalType": "enum DeCentDate.relationship_stage",
              "name": "relateStage",
              "type": "uint8"
            },
            {
              "internalType": "uint256",
              "name": "relId",
              "type": "uint256"
            }
          ],
          "internalType": "struct DeCentDate.ProfileItem[]",
          "name": "",
          "type": "tuple[]"
        }
      ],
      "stateMutability": "view",
      "type": "function"
    },
    {
      "inputs": [],
      "name": "fetchbyname",
      "outputs": [],
      "stateMutability": "nonpayable",
      "type": "function"
    },
    {
      "inputs": [],
      "name": "getProfCount",
      "outputs": [
        {
          "internalType": "uint256",
          "name": "",
          "type": "uint256"
        }
      ],
      "stateMutability": "view",
      "type": "function"
    },
    {
      "inputs": [],
      "name": "relateStage",
      "outputs": [
        {
          "internalType": "enum DeCentDate.relationship_stage",
          "name": "",
          "type": "uint8"
        }
      ],
      "stateMutability": "view",
      "type": "function"
    },
    {
      "inputs": [
        {
          "internalType": "uint256",
          "name": "id",
          "type": "uint256"
        }
      ],
      "name": "sendTextMessage",
      "outputs": [],
      "stateMutability": "nonpayable",
      "type": "function"
    },
    {
      "inputs": [],
      "name": "testcreateProfile",
      "outputs": [],
      "stateMutability": "nonpayable",
      "type": "function"
    }
  ],
  "bytecode": "0x608060405234801561001057600080fd5b5061252a806100206000396000f3fe608060405234801561001057600080fd5b50600436106100ea5760003560e01c8063a63b36881161008c578063bc9fb70f11610066578063bc9fb70f1461018b578063bd725b42146101ab578063e0d251a0146101c0578063fd857cda146101c8576100ea565b8063a63b36881461013d578063ac92300814610165578063b0c0647f14610178576100ea565b806328033760116100c8578063280337601461013557806358dccce11461013d5780637bd3dd081461013d57806384b08fa914610145576100ea565b806306fb2cf6146100ef5780631e46fe2d1461010d5780631fa44ecc14610122575b600080fd5b6100f76101dd565b604051610104919061222c565b60405180910390f35b61012061011b366004611d2b565b6105a2565b005b6100f7610130366004611d13565b6107d1565b610120610b11565b610120611274565b610158610153366004611d13565b611276565b6040516101049190612316565b610120610173366004611d13565b611379565b610120610186366004611c6b565b61137c565b61019e610199366004611c30565b61151c565b6040516101049190612193565b6101b361186b565b60405161010491906123a4565b610158611874565b6101d0611a05565b60405161010491906123b8565b606060006101eb6000611a18565b90506000808267ffffffffffffffff81111561021757634e487b7160e01b600052604160045260246000fd5b60405190808252806020026020018201604052801561025057816020015b61023d611a25565b8152602001906001900390816102355790505b50905060005b8381101561059a57600061026b82600161240a565b6000818152600360209081526040918290208251610100810184528154815260018201546001600160a01b03169281019290925260028101805494955090939192849290840191906102bc90612452565b80601f01602080910402602001604051908101604052809291908181526020018280546102e890612452565b80156103355780601f1061030a57610100808354040283529160200191610335565b820191906000526020600020905b81548152906001019060200180831161031857829003601f168201915b5050505050815260200160038201805461034e90612452565b80601f016020809104026020016040519081016040528092919081815260200182805461037a90612452565b80156103c75780601f1061039c576101008083540402835291602001916103c7565b820191906000526020600020905b8154815290600101906020018083116103aa57829003601f168201915b505050505081526020016004820180546103e090612452565b80601f016020809104026020016040519081016040528092919081815260200182805461040c90612452565b80156104595780601f1061042e57610100808354040283529160200191610459565b820191906000526020600020905b81548152906001019060200180831161043c57829003601f168201915b5050505050815260200160058201805461047290612452565b80601f016020809104026020016040519081016040528092919081815260200182805461049e90612452565b80156104eb5780601f106104c0576101008083540402835291602001916104eb565b820191906000526020600020905b8154815290600101906020018083116104ce57829003601f168201915b5050509183525050600682015460209091019060ff16600781111561052057634e487b7160e01b600052602160045260246000fd5b600781111561053f57634e487b7160e01b600052602160045260246000fd5b815260200160078201548152505084868151811061056d57634e487b7160e01b600052603260045260246000fd5b602090810291909101015261058360018661240a565b9450505080806105929061248d565b915050610256565b509250505090565b6105ac6001611a1c565b60006105b86001611a18565b6000888152600360205260409020600101549091506001600160a01b03163314806105fc57506000868152600360205260409020600101546001600160a01b031633145b8061062057506000858152600360205260409020600101546001600160a01b031633145b8061064457506000848152600360205260409020600101546001600160a01b031633145b61064d57600080fd5b6040518060e0016040528082815260200188815260200187815260200186815260200185815260200184600781111561069657634e487b7160e01b600052602160045260246000fd5b81528315156020918201526000838152600480835260409182902084518155928401516001808501919091559184015160028401556060840151600384015560808401519083015560a08301516005830180549192909160ff19169083600781111561071257634e487b7160e01b600052602160045260246000fd5b021790555060c09190910151600590910180549115156101000261ff00199092169190911790556000878152600360205260409020600780820183905560069091018054859260ff1990911690600190849081111561078157634e487b7160e01b600052602160045260246000fd5b0217905550807f105199387b71f4dbff0c41cc65f78d012e62d13357f0a8fd990a289361777d598888888888886040516107c0969594939291906123c1565b60405180910390a250505050505050565b600081815260036020526040808220815160018082528184019093526060939192816020015b6107ff611a25565b8152602001906001900390816107f757505060408051610100810182528454815260018501546001600160a01b03166020820152600285018054939450909285928401919061084d90612452565b80601f016020809104026020016040519081016040528092919081815260200182805461087990612452565b80156108c65780601f1061089b576101008083540402835291602001916108c6565b820191906000526020600020905b8154815290600101906020018083116108a957829003601f168201915b505050505081526020016003820180546108df90612452565b80601f016020809104026020016040519081016040528092919081815260200182805461090b90612452565b80156109585780601f1061092d57610100808354040283529160200191610958565b820191906000526020600020905b81548152906001019060200180831161093b57829003601f168201915b5050505050815260200160048201805461097190612452565b80601f016020809104026020016040519081016040528092919081815260200182805461099d90612452565b80156109ea5780601f106109bf576101008083540402835291602001916109ea565b820191906000526020600020905b8154815290600101906020018083116109cd57829003601f168201915b50505050508152602001600582018054610a0390612452565b80601f0160208091040260200160405190810160405280929190818152602001828054610a2f90612452565b8015610a7c5780601f10610a5157610100808354040283529160200191610a7c565b820191906000526020600020905b815481529060010190602001808311610a5f57829003601f168201915b5050509183525050600682015460209091019060ff166007811115610ab157634e487b7160e01b600052602160045260246000fd5b6007811115610ad057634e487b7160e01b600052602160045260246000fd5b815260200160078201548152505081600081518110610aff57634e487b7160e01b600052603260045260246000fd5b60209081029190910101529392505050565b610b1b6000611a1c565b6000610b276000611a18565b9050604051806101000160405280828152602001336001600160a01b0316815260200160405180604001604052806005815260200164526164687560d81b81525081526020016040518060400160405280600581526020016408ed0dee6d60db1b81525081526020016040518060400160405280600381526020016203737360ec1b8152508152602001604051806040016040528060078152602001661b181a9a1c1a1b60c91b815250815260200160006007811115610bf757634e487b7160e01b600052602160045260246000fd5b8152600060209182018190528381526003825260409081902083518155838301516001820180546001600160a01b0319166001600160a01b039092169190911790559083015180519192610c5392600285019290910190611a92565b5060608201518051610c6f916003840191602090910190611a92565b5060808201518051610c8b916004840191602090910190611a92565b5060a08201518051610ca7916005840191602090910190611a92565b5060c082015160068201805460ff19166001836007811115610cd957634e487b7160e01b600052602160045260246000fd5b021790555060e08201518160070155905050806000805160206124d583398151915233600080604051610d0e9392919061200b565b60405180910390a2610d206000611a1c565b6000610d2c6000611a18565b604080516101008101825282815233602080830191825283518085018552600581526420b735bab960d91b81830152838501908152845180860186526004815263536f6e6960e01b8184015260608501528451808601865260038082526235303160e81b82850152608086019190915285518087018752600781526606c6a60687262760cb1b8185015260a0860152600060c0860181905260e08601819052878152908352949094208351815591516001830180546001600160a01b0319166001600160a01b039092169190911790559251805194955091939092610e18926002850192910190611a92565b5060608201518051610e34916003840191602090910190611a92565b5060808201518051610e50916004840191602090910190611a92565b5060a08201518051610e6c916005840191602090910190611a92565b5060c082015160068201805460ff19166001836007811115610e9e57634e487b7160e01b600052602160045260246000fd5b021790555060e08201518160070155905050806000805160206124d583398151915233600080604051610ed393929190611f7c565b60405180910390a2610ee56000611a1c565b6000610ef16000611a18565b6040805161010081018252828152336020808301918252835180850185526008815267447220526164687560c01b8183015283850190815284518086018652600581526408ed0dee6d60db1b8184015260608501528451808601865260038082526203737360ec1b82850152608086019190915285518087018752600781526606c606a686668760cb1b8185015260a0860152600060c0860181905260e08601819052878152908352949094208351815591516001830180546001600160a01b0319166001600160a01b039092169190911790559251805194955091939092610fe1926002850192910190611a92565b5060608201518051610ffd916003840191602090910190611a92565b5060808201518051611019916004840191602090910190611a92565b5060a08201518051611035916005840191602090910190611a92565b5060c082015160068201805460ff1916600183600781111561106757634e487b7160e01b600052602160045260246000fd5b021790555060e08201518160070155905050806000805160206124d58339815191523360008060405161109c9392919061210f565b60405180910390a26110ae6000611a1c565b60006110ba6000611a18565b60408051610100810182528281523360208083019182528351808501855260078082526647616e6773746160c81b82840152848601918252855180870187526004815263536f6e6960e01b8185015260608601528551808701875260038082526235303160e81b82860152608087019190915286518088018852918252663635303439313760c81b8285015260a0860191909152600060c0860181905260e08601819052878152908352949094208351815591516001830180546001600160a01b0319166001600160a01b0390921691909117905592518051949550919390926111ab926002850192910190611a92565b50606082015180516111c7916003840191602090910190611a92565b50608082015180516111e3916004840191602090910190611a92565b5060a082015180516111ff916005840191602090910190611a92565b5060c082015160068201805460ff1916600183600781111561123157634e487b7160e01b600052602160045260246000fd5b021790555060e08201518160070155905050806000805160206124d5833981519152336000806040516112669392919061208c565b60405180910390a250505050565b565b600081815260046020526040808220815160018082528184019093526060939192816020015b6112a4611b16565b81526020019060019003908161129c5750506040805160e08101825284548152600185015460208201526002850154918101919091526003840154606082015260048401546080820152600584015491925090839060a083019060ff16600781111561132057634e487b7160e01b600052602160045260246000fd5b600781111561133f57634e487b7160e01b600052602160045260246000fd5b815260059190910154610100900460ff16151560209091015281518290600090610aff57634e487b7160e01b600052603260045260246000fd5b50565b6113866000611a1c565b60006113926000611a18565b9050604051806101000160405280828152602001336001600160a01b03168152602001868152602001858152602001848152602001838152602001600060078111156113ee57634e487b7160e01b600052602160045260246000fd5b8152600060209182018190528381526003825260409081902083518155838301516001820180546001600160a01b0319166001600160a01b03909216919091179055908301518051919261144a92600285019290910190611a92565b5060608201518051611466916003840191602090910190611a92565b5060808201518051611482916004840191602090910190611a92565b5060a0820151805161149e916005840191602090910190611a92565b5060c082015160068201805460ff191660018360078111156114d057634e487b7160e01b600052602160045260246000fd5b021790555060e08201518160070155905050806000805160206124d5833981519152338787878760008060405161150d9796959493929190611efc565b60405180910390a25050505050565b6060600061152a6000611a18565b90506000808267ffffffffffffffff81111561155657634e487b7160e01b600052604160045260246000fd5b60405190808252806020026020018201604052801561158f57816020015b61157c611b72565b8152602001906001900390816115745790505b50905060005b8381101561186257856040516020016115ae9190611e45565b60405160208183030381529060405280519060200120600360008360016115d5919061240a565b81526020019081526020016000206004016040516020016115f69190611e61565b60405160208183030381529060405280519060200120141561185057600061161f82600161240a565b60008181526003602052604090205484519192509084908690811061165457634e487b7160e01b600052603260045260246000fd5b602090810291909101810151919091526000828152600390915260409020600401805461168090612452565b80601f01602080910402602001604051908101604052809291908181526020018280546116ac90612452565b80156116f95780601f106116ce576101008083540402835291602001916116f9565b820191906000526020600020905b8154815290600101906020018083116116dc57829003601f168201915b505050505083858151811061171e57634e487b7160e01b600052603260045260246000fd5b60200260200101516020018190525060036000828152602001908152602001600020600501805461174e90612452565b80601f016020809104026020016040519081016040528092919081815260200182805461177a90612452565b80156117c75780601f1061179c576101008083540402835291602001916117c7565b820191906000526020600020905b8154815290600101906020018083116117aa57829003601f168201915b50505050508385815181106117ec57634e487b7160e01b600052603260045260246000fd5b602002602001015160400181905250600360008281526020019081526020016000206007015483858151811061183257634e487b7160e01b600052603260045260246000fd5b60209081029190910101516060015261184c60018561240a565b9350505b8061185a8161248d565b915050611595565b50949350505050565b60025460ff1681565b606060006118826001611a18565b90506000808267ffffffffffffffff8111156118ae57634e487b7160e01b600052604160045260246000fd5b6040519080825280602002602001820160405280156118e757816020015b6118d4611b16565b8152602001906001900390816118cc5790505b50905060005b8381101561059a57600061190282600161240a565b600081815260046020818152604092839020835160e081018552815481526001820154928101929092526002810154938201939093526003830154606082015290820154608082015260058201549293509091829060a083019060ff16600781111561197e57634e487b7160e01b600052602160045260246000fd5b600781111561199d57634e487b7160e01b600052602160045260246000fd5b815260059190910154610100900460ff16151560209091015284518590879081106119d857634e487b7160e01b600052603260045260246000fd5b60209081029190910101526119ee60018661240a565b9450505080806119fd9061248d565b9150506118ed565b600080611a126000611a18565b91505090565b5490565b80546001019055565b6040518061010001604052806000815260200160006001600160a01b031681526020016060815260200160608152602001606081526020016060815260200160006007811115611a8557634e487b7160e01b600052602160045260246000fd5b8152602001600081525090565b828054611a9e90612452565b90600052602060002090601f016020900481019282611ac05760008555611b06565b82601f10611ad957805160ff1916838001178555611b06565b82800160010185558215611b06579182015b82811115611b06578251825591602001919060010190611aeb565b50611b12929150611b9a565b5090565b6040518060e00160405280600081526020016000815260200160008152602001600081526020016000815260200160006007811115611b6557634e487b7160e01b600052602160045260246000fd5b8152600060209091015290565b6040518060800160405280600081526020016060815260200160608152602001600081525090565b5b80821115611b125760008155600101611b9b565b600082601f830112611bbf578081fd5b813567ffffffffffffffff80821115611bda57611bda6124be565b604051601f8301601f191681016020018281118282101715611bfe57611bfe6124be565b604052828152848301602001861015611c15578384fd5b82602086016020830137918201602001929092529392505050565b600060208284031215611c41578081fd5b813567ffffffffffffffff811115611c57578182fd5b611c6384828501611baf565b949350505050565b60008060008060808587031215611c80578283fd5b843567ffffffffffffffff80821115611c97578485fd5b611ca388838901611baf565b95506020870135915080821115611cb8578485fd5b611cc488838901611baf565b94506040870135915080821115611cd9578384fd5b611ce588838901611baf565b93506060870135915080821115611cfa578283fd5b50611d0787828801611baf565b91505092959194509250565b600060208284031215611d24578081fd5b5035919050565b60008060008060008060c08789031215611d43578182fd5b86359550602087013594506040870135935060608701359250608087013560088110611d6d578283fd5b915060a08701358015158114611d81578182fd5b809150509295509295509295565b6001600160a01b03169052565b60088110611dba57634e487b7160e01b600052602160045260246000fd5b9052565b60008151808452611dd6816020860160208601612422565b601f01601f19169290920160200192915050565b6004815263536f6e6960e01b602082015260400190565b600381526235303160e81b602082015260400190565b600381526203737360ec1b602082015260400190565b600581526408ed0dee6d60db1b602082015260400190565b60008251611e57818460208701612422565b9190910192915050565b8154600090819060028104600180831680611e7d57607f831692505b6020808410821415611e9d57634e487b7160e01b87526022600452602487fd5b818015611eb15760018114611ec257611eee565b60ff19861689528489019650611eee565b611ecb8a6123fe565b885b86811015611ee65781548b820152908501908301611ecd565b505084890196505b509498975050505050505050565b6001600160a01b038816815260e060208201819052600090611f2090830189611dbe565b8281036040840152611f328189611dbe565b90508281036060840152611f468188611dbe565b90508281036080840152611f5a8187611dbe565b915050611f6a60a0830185611d9c565b8260c083015298975050505050505050565b600060018060a01b038516825260e06020830152600560e08301526420b735bab960d91b610100830152610120806040840152611fba818401611dea565b90508281036060840152611fcd81611e01565b8381036080850152600781526606c6a60687262760cb1b60208201526040019150611ffd905060a0830185611d9c565b8260c0830152949350505050565b600060018060a01b038516825260e06020830152600560e083015264526164687560d81b610100830152610120806040840152612049818401611e2d565b9050828103606084015261205c81611e17565b838103608085015260078152661b181a9a1c1a1b60c91b60208201526040019150611ffd905060a0830185611d9c565b600060018060a01b038516825260e06020830152600760e08301526647616e6773746160c81b6101008301526101208060408401526120cc818401611dea565b905082810360608401526120df81611e01565b838103608085015260078152663635303439313760c81b60208201526040019150611ffd905060a0830185611d9c565b600060018060a01b038516825260e06020830152600860e083015267447220526164687560c01b610100830152610120806040840152612150818401611e2d565b9050828103606084015261216381611e17565b8381036080850152600781526606c606a686668760cb1b60208201526040019150611ffd905060a0830185611d9c565b60208082528251828201819052600091906040908185019080840286018301878501865b8381101561221e57603f19898403018552815160808151855288820151818a8701526121e582870182611dbe565b91505087820151858203898701526121fd8282611dbe565b606093840151969093019590955250948701949250908601906001016121b7565b509098975050505050505050565b60208082528251828201819052600091906040908185019080840286018301878501865b8381101561221e57603f198984030185528151610100815185528882015161227a8a870182611d8f565b5087820151818987015261229082870182611dbe565b915050606080830151868303828801526122aa8382611dbe565b92505050608080830151868303828801526122c58382611dbe565b9250505060a080830151868303828801526122e08382611dbe565b9250505060c0808301516122f682880182611d9c565b505060e09182015194909101939093529386019390860190600101612250565b602080825282518282018190526000919060409081850190868401855b828110156123975781518051855286810151878601528581015186860152606080820151908601526080808201519086015260a08082015161237782880182611d9c565b505060c09081015115159085015260e09093019290850190600101612333565b5091979650505050505050565b602081016123b28284611d9c565b92915050565b90815260200190565b600060c0820190508782528660208301528560408301528460608301526123eb6080830185611d9c565b82151560a0830152979650505050505050565b60009081526020902090565b6000821982111561241d5761241d6124a8565b500190565b60005b8381101561243d578181015183820152602001612425565b8381111561244c576000848401525b50505050565b60028104600182168061246657607f821691505b6020821081141561248757634e487b7160e01b600052602260045260246000fd5b50919050565b60006000198214156124a1576124a16124a8565b5060010190565b634e487b7160e01b600052601160045260246000fd5b634e487b7160e01b600052604160045260246000fdfe810ab2dd45552be1da278a60d9d714f5b6080007cd5ab202b452e7ca315515f3a264697066735822122073b16d4419336ddc7f6d5c7cc9f6cb09d49afd79ca3ee68deb2f709b0065a2c664736f6c63430008000033",
  "linkReferences": {},
  "deployedLinkReferences": {}
}